{
  "contractName": "CrowdFunding",
  "abi": [
    {
      "inputs": [
        {
          "internalType": "string",
          "name": "_id",
          "type": "string"
        },
        {
          "internalType": "string",
          "name": "_name",
          "type": "string"
        },
        {
          "internalType": "string",
          "name": "_description",
          "type": "string"
        },
        {
          "internalType": "uint256",
          "name": "_fundraisingGoal",
          "type": "uint256"
        }
      ],
      "stateMutability": "nonpayable",
      "type": "constructor"
    },
    {
      "anonymous": false,
      "inputs": [
        {
          "indexed": false,
          "internalType": "string",
          "name": "projectId",
          "type": "string"
        },
        {
          "indexed": false,
          "internalType": "uint256",
          "name": "value",
          "type": "uint256"
        }
      ],
      "name": "ProjectFunded",
      "type": "event"
    },
    {
      "anonymous": false,
      "inputs": [
        {
          "indexed": false,
          "internalType": "string",
          "name": "id",
          "type": "string"
        },
        {
          "indexed": false,
          "internalType": "enum CrowdFunding.FundraisingState",
          "name": "state",
          "type": "uint8"
        }
      ],
      "name": "ProjectStateChanged",
      "type": "event"
    },
    {
      "inputs": [],
      "name": "project",
      "outputs": [
        {
          "internalType": "string",
          "name": "id",
          "type": "string"
        },
        {
          "internalType": "string",
          "name": "name",
          "type": "string"
        },
        {
          "internalType": "string",
          "name": "description",
          "type": "string"
        },
        {
          "internalType": "address payable",
          "name": "author",
          "type": "address"
        },
        {
          "internalType": "enum CrowdFunding.FundraisingState",
          "name": "state",
          "type": "uint8"
        },
        {
          "internalType": "uint256",
          "name": "funds",
          "type": "uint256"
        },
        {
          "internalType": "uint256",
          "name": "fundraisingGoal",
          "type": "uint256"
        }
      ],
      "stateMutability": "view",
      "type": "function",
      "constant": true
    },
    {
      "inputs": [],
      "name": "fundProject",
      "outputs": [],
      "stateMutability": "payable",
      "type": "function",
      "payable": true
    },
    {
      "inputs": [
        {
          "internalType": "enum CrowdFunding.FundraisingState",
          "name": "newState",
          "type": "uint8"
        }
      ],
      "name": "changeProjectState",
      "outputs": [],
      "stateMutability": "nonpayable",
      "type": "function"
    },
    {
      "inputs": [],
      "name": "withdrawFunds",
      "outputs": [],
      "stateMutability": "nonpayable",
      "type": "function"
    }
  ],
  "bytecode": "0x60806040523480156200001157600080fd5b50604051620015cf380380620015cf833981810160405281019062000037919062000418565b6040518060e001604052808581526020018481526020018381526020013373ffffffffffffffffffffffffffffffffffffffff16815260200160006001811115620000875762000086620004e7565b5b81526020016000815260200182815250600080820151816000019080519060200190620000b692919062000190565b506020820151816001019080519060200190620000d592919062000190565b506040820151816002019080519060200190620000f492919062000190565b5060608201518160030160006101000a81548173ffffffffffffffffffffffffffffffffffffffff021916908373ffffffffffffffffffffffffffffffffffffffff16021790555060808201518160030160146101000a81548160ff021916908360018111156200016a5762000169620004e7565b5b021790555060a0820151816004015560c08201518160050155905050505050506200057a565b8280546200019e9062000545565b90600052602060002090601f016020900481019282620001c257600085556200020e565b82601f10620001dd57805160ff19168380011785556200020e565b828001600101855582156200020e579182015b828111156200020d578251825591602001919060010190620001f0565b5b5090506200021d919062000221565b5090565b5b808211156200023c57600081600090555060010162000222565b5090565b6000604051905090565b600080fd5b600080fd5b600080fd5b600080fd5b6000601f19601f8301169050919050565b7f4e487b7100000000000000000000000000000000000000000000000000000000600052604160045260246000fd5b620002a9826200025e565b810181811067ffffffffffffffff82111715620002cb57620002ca6200026f565b5b80604052505050565b6000620002e062000240565b9050620002ee82826200029e565b919050565b600067ffffffffffffffff8211156200031157620003106200026f565b5b6200031c826200025e565b9050602081019050919050565b60005b83811015620003495780820151818401526020810190506200032c565b8381111562000359576000848401525b50505050565b6000620003766200037084620002f3565b620002d4565b90508281526020810184848401111562000395576200039462000259565b5b620003a284828562000329565b509392505050565b600082601f830112620003c257620003c162000254565b5b8151620003d48482602086016200035f565b91505092915050565b6000819050919050565b620003f281620003dd565b8114620003fe57600080fd5b50565b6000815190506200041281620003e7565b92915050565b600080600080608085870312156200043557620004346200024a565b5b600085015167ffffffffffffffff8111156200045657620004556200024f565b5b6200046487828801620003aa565b945050602085015167ffffffffffffffff8111156200048857620004876200024f565b5b6200049687828801620003aa565b935050604085015167ffffffffffffffff811115620004ba57620004b96200024f565b5b620004c887828801620003aa565b9250506060620004db8782880162000401565b91505092959194509250565b7f4e487b7100000000000000000000000000000000000000000000000000000000600052602160045260246000fd5b7f4e487b7100000000000000000000000000000000000000000000000000000000600052602260045260246000fd5b600060028204905060018216806200055e57607f821691505b60208210810362000574576200057362000516565b5b50919050565b611045806200058a6000396000f3fe60806040526004361061003f5760003560e01c806324600fc3146100445780635699fadc1461005b578063d63dc66114610084578063f60ca60d1461008e575b600080fd5b34801561005057600080fd5b506100596100bf565b005b34801561006757600080fd5b50610082600480360381019061007d9190610842565b610298565b005b61008c61040f565b005b34801561009a57600080fd5b506100a3610623565b6040516100b697969594939291906109d9565b60405180910390f35b3373ffffffffffffffffffffffffffffffffffffffff16600060030160009054906101000a900473ffffffffffffffffffffffffffffffffffffffff1673ffffffffffffffffffffffffffffffffffffffff1614610152576040517f08c379a000000000000000000000000000000000000000000000000000000000815260040161014990610acf565b60405180910390fd5b60018081111561016557610164610949565b5b600060030160149054906101000a900460ff16600181111561018a57610189610949565b5b146101ca576040517f08c379a00000000000000000000000000000000000000000000000000000000081526004016101c190610b61565b60405180910390fd5b60006005015460006004015410610216576040517f08c379a000000000000000000000000000000000000000000000000000000000815260040161020d90610bf3565b60405180910390fd5b60008060040154905060008060040181905550600060030160009054906101000a900473ffffffffffffffffffffffffffffffffffffffff1673ffffffffffffffffffffffffffffffffffffffff166108fc829081150290604051600060405180830381858888f19350505050158015610294573d6000803e3d6000fd5b5050565b3373ffffffffffffffffffffffffffffffffffffffff16600060030160009054906101000a900473ffffffffffffffffffffffffffffffffffffffff1673ffffffffffffffffffffffffffffffffffffffff161461032b576040517f08c379a000000000000000000000000000000000000000000000000000000000815260040161032290610acf565b60405180910390fd5b80600181111561033e5761033d610949565b5b600060030160149054906101000a900460ff16600181111561036357610362610949565b5b036103a3576040517f08c379a000000000000000000000000000000000000000000000000000000000815260040161039a90610c5f565b60405180910390fd5b80600060030160146101000a81548160ff021916908360018111156103cb576103ca610949565b5b02179055507fd63742463cd36bb1dedcfdcdedc4f9a6fdeaf7c80d9e702884e6b373ecb51f1d6000800182604051610404929190610d74565b60405180910390a150565b3373ffffffffffffffffffffffffffffffffffffffff16600060030160009054906101000a900473ffffffffffffffffffffffffffffffffffffffff1673ffffffffffffffffffffffffffffffffffffffff16036104a2576040517f08c379a000000000000000000000000000000000000000000000000000000000815260040161049990610e16565b60405180910390fd5b6001808111156104b5576104b4610949565b5b600060030160149054906101000a900460ff1660018111156104da576104d9610949565b5b0361051a576040517f08c379a000000000000000000000000000000000000000000000000000000000815260040161051190610ea8565b60405180910390fd5b6000341161055d576040517f08c379a000000000000000000000000000000000000000000000000000000000815260040161055490610f3a565b60405180910390fd5b600060030160009054906101000a900473ffffffffffffffffffffffffffffffffffffffff1673ffffffffffffffffffffffffffffffffffffffff166108fc349081150290604051600060405180830381858888f193505050501580156105c8573d6000803e3d6000fd5b5034600060040160008282546105de9190610f89565b925050819055507f925c00924682e835f48a31e5b83cb323934f40a811c5a8f44a662915035033c66000800134604051610619929190610fdf565b60405180910390a1565b600080600001805461063490610cae565b80601f016020809104026020016040519081016040528092919081815260200182805461066090610cae565b80156106ad5780601f10610682576101008083540402835291602001916106ad565b820191906000526020600020905b81548152906001019060200180831161069057829003601f168201915b5050505050908060010180546106c290610cae565b80601f01602080910402602001604051908101604052809291908181526020018280546106ee90610cae565b801561073b5780601f106107105761010080835404028352916020019161073b565b820191906000526020600020905b81548152906001019060200180831161071e57829003601f168201915b50505050509080600201805461075090610cae565b80601f016020809104026020016040519081016040528092919081815260200182805461077c90610cae565b80156107c95780601f1061079e576101008083540402835291602001916107c9565b820191906000526020600020905b8154815290600101906020018083116107ac57829003601f168201915b5050505050908060030160009054906101000a900473ffffffffffffffffffffffffffffffffffffffff16908060030160149054906101000a900460ff16908060040154908060050154905087565b600080fd5b6002811061082a57600080fd5b50565b60008135905061083c8161081d565b92915050565b60006020828403121561085857610857610818565b5b60006108668482850161082d565b91505092915050565b600081519050919050565b600082825260208201905092915050565b60005b838110156108a957808201518184015260208101905061088e565b838111156108b8576000848401525b50505050565b6000601f19601f8301169050919050565b60006108da8261086f565b6108e4818561087a565b93506108f481856020860161088b565b6108fd816108be565b840191505092915050565b600073ffffffffffffffffffffffffffffffffffffffff82169050919050565b600061093382610908565b9050919050565b61094381610928565b82525050565b7f4e487b7100000000000000000000000000000000000000000000000000000000600052602160045260246000fd5b6002811061098957610988610949565b5b50565b600081905061099a82610978565b919050565b60006109aa8261098c565b9050919050565b6109ba8161099f565b82525050565b6000819050919050565b6109d3816109c0565b82525050565b600060e08201905081810360008301526109f3818a6108cf565b90508181036020830152610a0781896108cf565b90508181036040830152610a1b81886108cf565b9050610a2a606083018761093a565b610a3760808301866109b1565b610a4460a08301856109ca565b610a5160c08301846109ca565b98975050505050505050565b7f596f75206e65656420746f206265207468652070726f6a65637420617574686f60008201527f7200000000000000000000000000000000000000000000000000000000000000602082015250565b6000610ab960218361087a565b9150610ac482610a5d565b604082019050919050565b60006020820190508181036000830152610ae881610aac565b9050919050565b7f50726f6a656374206d75737420626520636c6f73656420746f2077697468647260008201527f61772066756e6473000000000000000000000000000000000000000000000000602082015250565b6000610b4b60288361087a565b9150610b5682610aef565b604082019050919050565b60006020820190508181036000830152610b7a81610b3e565b9050919050565b7f43616e6e6f742077697468647261772066756e64732c20676f616c207265616360008201527f6865640000000000000000000000000000000000000000000000000000000000602082015250565b6000610bdd60238361087a565b9150610be882610b81565b604082019050919050565b60006020820190508181036000830152610c0c81610bd0565b9050919050565b7f4e6577207374617465206d75737420626520646966666572656e740000000000600082015250565b6000610c49601b8361087a565b9150610c5482610c13565b602082019050919050565b60006020820190508181036000830152610c7881610c3c565b9050919050565b7f4e487b7100000000000000000000000000000000000000000000000000000000600052602260045260246000fd5b60006002820490506001821680610cc657607f821691505b602082108103610cd957610cd8610c7f565b5b50919050565b60008190508160005260206000209050919050565b60008154610d0181610cae565b610d0b818661087a565b94506001821660008114610d265760018114610d3857610d6b565b60ff1983168652602086019350610d6b565b610d4185610cdf565b60005b83811015610d6357815481890152600182019150602081019050610d44565b808801955050505b50505092915050565b60006040820190508181036000830152610d8e8185610cf4565b9050610d9d60208301846109b1565b9392505050565b7f417320617574686f7220796f752063616e206e6f742066756e6420796f75722060008201527f6f776e2070726f6a656374000000000000000000000000000000000000000000602082015250565b6000610e00602b8361087a565b9150610e0b82610da4565b604082019050919050565b60006020820190508181036000830152610e2f81610df3565b9050919050565b7f5468652070726f6a6563742063616e206e6f7420726563656976652066756e6460008201527f7300000000000000000000000000000000000000000000000000000000000000602082015250565b6000610e9260218361087a565b9150610e9d82610e36565b604082019050919050565b60006020820190508181036000830152610ec181610e85565b9050919050565b7f46756e642076616c7565206d7573742062652067726561746572207468616e2060008201527f3000000000000000000000000000000000000000000000000000000000000000602082015250565b6000610f2460218361087a565b9150610f2f82610ec8565b604082019050919050565b60006020820190508181036000830152610f5381610f17565b9050919050565b7f4e487b7100000000000000000000000000000000000000000000000000000000600052601160045260246000fd5b6000610f94826109c0565b9150610f9f836109c0565b9250827fffffffffffffffffffffffffffffffffffffffffffffffffffffffffffffffff03821115610fd457610fd3610f5a565b5b828201905092915050565b60006040820190508181036000830152610ff98185610cf4565b905061100860208301846109ca565b939250505056fea2646970667358221220c3469c49aa0ac4ae33c90cf305aa92778496b1857e8becdba2c469c84c324fd764736f6c634300080d0033",
  "immutableReferences": {},
  "source": "// SPDX-License-Identifier: GPL-3.0\n\npragma solidity >=0.7.0 <0.9.0;\n\ncontract CrowdFunding {\n\t// Possible states of the fundraising campaign\n    enum FundraisingState {\n        Opened,\n        Closed\n    }\n\n    // Structure representing a project\n    struct Project {\n        string id;\n        string name;\n        string description;\n        address payable author;\n        FundraisingState state;\n        uint256 funds;\n        uint256 fundraisingGoal;\n    }\n\n\t// Instance of the project\n    Project public project;\n\n\t// Events\n    event ProjectFunded(string projectId, uint256 value);\n\n    event ProjectStateChanged(string id, FundraisingState state);\n\n\t// Constructor\n    constructor(\n        string memory _id,\n        string memory _name,\n        string memory _description,\n        uint256 _fundraisingGoal\n    ) {\n        project = Project(\n            _id,\n            _name,\n            _description,\n            payable(msg.sender),\n            FundraisingState.Opened,\n            0,\n            _fundraisingGoal\n        );\n    }\n\n\t// Modifiers\n    modifier isAuthor() {\n        require(\n            project.author == msg.sender,\n            \"You need to be the project author\"\n        );\n        _;\n    }\n\n    modifier isNotAuthor() {\n        require(\n            project.author != msg.sender,\n            \"As author you can not fund your own project\"\n        );\n        _;\n    }\n\n\tmodifier isFundraisingOpen() {\n        require(\n            project.state == FundraisingState.Opened,\n            \"The project is not open for funding\"\n        );\n        _;\n    }\n\n\t// Function to fund the project\n    function fundProject() public payable isNotAuthor {\n        require(\n            project.state != FundraisingState.Closed,\n            \"The project can not receive funds\"\n        );\n        require(msg.value > 0, \"Fund value must be greater than 0\");\n        project.author.transfer(msg.value);\n        project.funds += msg.value;\n        emit ProjectFunded(project.id, msg.value);\n    }\n\n\t// Function to change the project state\n    function changeProjectState(FundraisingState newState) public isAuthor {\n        require(project.state != newState, \"New state must be different\");\n        project.state = newState;\n        emit ProjectStateChanged(project.id, newState);\n    }\n\n\t// Function to withdraw funds if the goal is not reached\n\tfunction withdrawFunds() public isAuthor {\n        require(project.state == FundraisingState.Closed, \"Project must be closed to withdraw funds\");\n        require(project.funds < project.fundraisingGoal, \"Cannot withdraw funds, goal reached\");\n        \n        uint256 amount = project.funds;\n        project.funds = 0;\n        project.author.transfer(amount);\n    }\n}\n",
  "sourcePath": "C:\\Users\\alvar\\OneDrive\\Escritorio (1)\\platzi\\introduccion_blockchain\\contracts\\CrowdFunding.sol",
  "compiler": {
    "name": "solc",
    "version": "0.8.13+commit.abaa5c0e.Emscripten.clang"
  },
  "schemaVersion": "3.4.16",
  "updatedAt": "2024-07-12T17:55:02.668Z",
  "networkType": "ethereum",
  "devdoc": {
    "kind": "dev",
    "methods": {},
    "version": 1
  },
  "userdoc": {
    "kind": "user",
    "methods": {},
    "version": 1
  }
}